:100000000C94E21A0C94131B0C94131B0C94131BEA
:100010000C94131B0C94131B0C94131B0C94131BA8
:100020000C94131B0C94D5F90C94D5F90C94D5F9B8
:100030000C94131B0C945CFD0C94131B0C94131B5D
:100040000C94131B0C9474B70C94131B0C94131B7B
:100050000C94131B0C94131B0C94A5B10C9412FD5F
:100060000C94131B0C94552D0C944B2D0C94131BBA
:100070000C94131B0C94131B0C94131B0C94131B48
:100080000C94131B0C94131B0C94131B0C94131B38
:100090000C94131B0C94131B0C94131B0C94131B28
:1000A0000C94131B0C94131B0C94131B0C94131B18
:1000B0000C94131B0C94131B0C94131B0C94131B08
:1000C0000C94131B0C94131B0C94131B0C94131BF8
:1000D0000C94131B0C94131B0C94131B0C94131BE8
:1000E0000C94131B084AD73B3BCE016E84BCBFFD6A
:1000F000C12F3D6C74319ABD56833DDA3D00C77FF8
:1001000011BED9E4BB4C3E916BAAAABE0000008090
:100110003F05A84CCDB2D44EB93836A9020C50B91F
:10012000918688083CA6AAAA2ABE000000803F004B
:100130000D9462020D945E020D9477020D946E028E
:100140000D94960E0D943E060D9466024E414E4956
:100150004E495459494E46CDCCCC3D0AD7233C1785
:10016000B7D13877CC2B329595E6241FB14F0A00D2
:100170000020410000C84200401C4620BCBE4CCAC2
:100180001B0E5AAEC59D7400407A10F35A00A0723F
:100190004E18090010A5D4E80000E87648170000C2
:1001A000E40B54020000CA9A3B000000E1F5050090
:1001B0000080969800000040420F000000A08601D9
:1001C000000000102700000000E8030000000064A9
:1001D00000000000000A0000000000010000000014
:1001E000002C76D888DC674F0823DFC1DFAE59E1E9
:1001F000B1B796E5E3E453C63AE651997696E8E658
:10020000C28426EB898C9B62ED407C6FFCEFBC9C2A
:100210009F40F2BAA56FA5F490055A2AF75C936B3C
:100220006CF9676DC11BFCE0E40D47FEF520E6B5F7
:1002300000D0ED902E0300943577050080841E08D1
:100240000000204E0A000000C80C333333330F98EF
:100250006E12831141EF8D2114893BE65516CFFEB6
:10026000E6DB18D1844B381BF77C1D901DA4BBE442
:1002700024203284725E228100C9F124ECA1E53D84
:1002800027434F4D4D554E49434154494F4E00442D
:10029000525952554E004552524F525300494E4604
:1002A0004F004543484F005041524F552E200050BB
:1002B00072696E7465722073746F70706564206407
:1002C000756520746F206572726F72732E20466997
:1002D0007820746865206572726F7220616E642088
:1002E000757365204D39393920746F2072657374C8
:1002F0006172742E202854656D7065726174757218
:10030000652069732072657365742E2053657420AF
:1003100069742061667465722072657374617274A9
:10032000696E67290A004E6F20436865636B7375B9
:100330006D2077697468206C696E65206E756D62DA
:1003400065722C204C617374204C696E653A2000F4
:100350004E6F20436865636B73756D2077697468B1
:10036000206C696E65206E756D6265722C204C6123
:100370007374204C696E653A2000636865636B7323
:10038000756D206D69736D617463682C204C6173A9
:1003900074204C696E653A20004C696E65204E757C
:1003A0006D626572206973206E6F74204C61737486
:1003B000204C696E65204E756D6265722B312C2064
:1003C0004C617374204C696E653A20004D313130B8
:1003D0000053657269616C20737461747573206D6C
:1003E00069736D617463680A0053442072656164C7
:1003F000206572726F720A006D41290A00206472D2
:1004000069766572206F76657274656D706572616C
:1004100074757265207761726E696E67212028009D
:100420003A20002063757272656E74206465637291
:10043000656173656420746F20006D41290A002096
:10044000647269766572206F76657274656D706529
:10045000726174757265207761726E696E672120B2
:1004600028003A20002063757272656E74206465FE
:100470006372656173656420746F20006D41290AA1
:100480000020647269766572206F76657274656D9E
:100490007065726174757265207761726E696E67DE
:1004A000212028003A20002063757272656E742046
:1004B00064656372656173656420746F20006D41CB
:1004C000290A0020647269766572206F76657274FD
:1004D000656D7065726174757265207761726E69A1
:1004E0006E67212028003A20002121204B494C4CE6
:1004F00020636175736564206279204B494C4C2000
:10050000627574746F6E2F70696E0A002121204B22
:10051000494C4C2063617573656420627920746F67
:100520006F206D75636820696E61637469766520FC
:1005300074696D65202D2063757272656E74206319
:100540006F6D6D616E643A2000627573793A207048
:10055000617573656420666F7220696E7075740AC8
:1005600000627573793A2070617573656420666FF7
:100570007220757365720A00627573793A20707221
:100580006F63657373696E670A0043617274C3A316
:100590006F2072656D6F7669646F0043617274C31A
:1005A000A36F20696E73657269646F004661766F30
:1005B00072207265736574617200494D50524553E3
:1005C000534F5241205041524F550025533A202558
:1005D0005300706F7765726F6666005041524144F8
:1005E0004120444520454D455247C38A4E43494129
:1005F000005072696E7465722068616C7465642E57
:10060000206B696C6C28292063616C6C6564210A1D
:10061000006563686F3A004572726F723A004F4628
:1006200046004F4E0066616C73650074727565001C
:1006300042696C696E656172204C6576656C696EA5
:100640006720477269643A0A002568753A25303296
:1006500068750025303268753A2530326875002596
:100660006875642025303268753A25303268750027
:10067000303D2E33323500313D2E3138006D6178FA
:10068000002F3331002F3331002F333100303D2E16
:1006900033323500313D2E3138006D6178002F3313
:1006A00031002F3331002F333100303D2E333235BE
:1006B00000313D2E3138006D6178002F3331002F2D
:1006C0003331002F333100303D2E33323500313D90
:1006D0002E3138006D6178002F3331002F33310017
:1006E0002F333100092042616420726573706F6E90
:1006F00073652100092042616420726573706F6E1A
:1007000073652100092042616420726573706F6E09
:1007100073652100092042616420726573706F6EF9
:10072000736521004C4F570048494748004F4B0024
:100730004572726F723A20416C6C200020636F6EBC
:100740006E656374696F6E2E2E2E2000546573746F
:10075000696E6720004C4F570048494748004F4B8F
:10076000004572726F723A20416C6C200020636FFA
:100770006E6E656374696F6E2E2E2E200054657345
:1007800074696E6720004C4F570048494748004F36
:100790004B004572726F723A20416C6C20002063EE
:1007A0006F6E6E656374696F6E2E2E2E2000546519
:1007B0007374696E6720004C4F57004849474800E2
:1007C0004F4B004572726F723A20416C6C200020D2
:1007D000636F6E6E656374696F6E2E2E2E200054EB
:1007E000657374696E672000544D4320434F4E4E2D
:1007F000454354494F4E204552524F52004F4646B2
:100800000A00466164652048656967687420004293
:100810006564204C6576656C696E67200046616989
:100820006C656420746F20656E61626C6520426542
:1008300064204C6576656C696E670A00496E766166
:100840006C6964206D6573682E0A00536F6E646175
:100850006E646F20706F6E746F0025532025692FB2
:100860002569002E0A002F0050726F62696E6720A2
:100870006D65736820706F696E7420002028445283
:100880005952554E2900473239204175746F204224
:100890006564204C6576656C696E67003F20284C66
:1008A0002C522C462C4229206F7574206F662062D2
:1008B0006F756E64732E0A003F2856296572626F49
:1008C0007365206C6576656C20696D706C617573FD
:1008D00069626C652028302D34292E0A004261643B
:1008E000205A2076616C75650A004E6F2062696C33
:1008F000696E65617220677269640A002044002095
:10090000204D323030205300202844697361626CDE
:100910006564293A0046696C616D656E7420736583
:100920007474696E67730020204D32303120580096
:100930004D617820416363656C65726174696F6EA7
:100940002028756E6974732F7332290020204D3270
:1009500030332058004D617820666565647261749B
:1009600065732028756E6974732F732900205200F7
:1009700020204D323034205000416363656C657235
:100980006174696F6E2028756E6974732F733229D4
:100990002028503C7072696E742D616363656C3EF3
:1009A00020523C726574726163742D616363656C7F
:1009B0003E20543C74726176656C2D616363656C96
:1009C0003E2900204A0020540020530020204D32B0
:1009D0003035204200416476616E636564202842B0
:1009E0003C6D696E5F7365676D656E745F74696D8C
:1009F000655F75733E20533C6D696E5F6665656427
:100A0000726174653E20543C6D696E5F74726176EC
:100A1000656C5F66656564726174653E204A3C6A18
:100A2000756E635F6465763E2900204400204900AE
:100A300020204D333031205000486F74656E6420A3
:100A40005049440020204D61783A200020002020A9
:100A50004D696E3A2000203B200020204D3231317C
:100A6000205300536F667420656E6473746F7073E7
:100A700000617869733A70776D5F7363616C652F9D
:100A8000637572725F7363616C652F6D6563685F18
:100A90006C6F61647C666C6167737C7761726E6396
:100AA0006F756E740A004452565F53544154555347
:100AB000090050574D5F5343414C45090050574D75
:100AC000434F4E460900434F4F4C434F4E4609009B
:100AD00043484F50434F4E46090054484947480940
:100AE000090054434F4F4C54485253090054505737
:100AF0004D54485253090054535445500909005469
:100B0000504F574552444F574E0900494F494E09DF
:100B10000900475354415409090049484F4C445F68
:100B20004952554E090047434F4E460909000900F6
:100B30004472697665722072656769737465727351
:100B40003A0A006F7409006F747077090073326796
:100B50006109007332676209006F6C6109006F6C94
:100B60006209007374737409006673616374697653
:100B700065007374616C6C67756172640073675FA4
:100B8000726573756C7400445256535441545553F6
:100B900000755374657020636F756E7400537461D3
:100BA0006C6C6775617264207468727300202D73B9
:100BB000746172740900687973746572657369731E
:100BC0000A202D656E640900626C616E6B20746989
:100BD0006D65006F66662074696D65007472696783
:100BE00067657265640A204F545009004F542070A5
:100BF00072657761726E005B6D6D2F735D090050D9
:100C0000574D207468726573682E00747374657034
:100C10000900696E7465727009006D737465707394
:100C20000900737465616C746843686F7000767353
:100C3000656E7365090050574D207363616C6500E4
:100C400043532061637475616C00486F6C6420636A
:100C5000757272656E740052756E2063757272657E
:100C60006E74004D41582063757272656E74005247
:100C70004D532063757272656E7400536574206302
:100C8000757272656E7400456E61626C6564090010
:100C900009007370726561644379636C65007374F5
:100CA00065616C746843686F700020647269766572
:100CB00072206D6F64653A090073707265616443F8
:100CC00079636C6500737465616C746843686F70F8
:100CD0000020647269766572206D6F64653A090060
:100CE0007370726561644379636C650073746561E8
:100CF0006C746843686F7000206472697665722056
:100D00006D6F64653A09007370726561644379635D
:100D10006C6500737465616C746843686F70002063
:100D2000647269766572206D6F64653A09002064AB
:100D300072697665722063757272656E743A20000E
:100D4000206472697665722063757272656E743A9A
:100D50002000206472697665722063757272656E18
:100D6000743A20002064726976657220637572722D
:100D7000656E743A2000207072657761726E20662D
:100D80006C616720636C65617265640A0020707233
:100D9000657761726E20666C616720636C65617255
:100DA00065640A00207072657761726E20666C61FE
:100DB0006720636C65617265640A002070726577F4
:100DC00061726E20666C616720636C656172656438
:100DD0000A003B200020496E76616C6964206578CA
:100DE000747275646572200020496E76616C696466
:100DF0002045207374657070657220002045207353
:100E0000746570706572206E6F74207370656369AD
:100E1000666965640A0047322F47332062616420A7
:100E2000706172616D65746572730A00446F726DF2
:100E3000696E646F2E2E2E005A2050726F626520EC
:100E400050617374204265640A00536F6E646120C0
:100E5000666F7261206461206D65736100205A3A8B
:100E6000200020593A200042656420583A20004D65
:100E700065736820706F696E74206F7574206F667B
:100E80002072616E67650A00436C69717565207038
:100E9000617261207265746F6D61720053656D20BF
:100EA0006D6F76696D656E746F00456E642066695E
:100EB0006C65206C6973740A00426567696E206610
:100EC000696C65206C6973740A004E6F206D6564EF
:100ED00069610A00706175736500286E6F2066692C
:100EE0006C65290043757272656E742066696C6565
:100EF0003A20005344207072696E74696E672062F4
:100F000079746520004E6F74205344207072696EAE
:100F100074696E670A002E0A0044656C6574696F17
:100F20006E206661696C65642C2046696C653A20A8
:100F30000046696C652064656C657465643A0025DB
:100F400069730025696D202569730025696820256E
:100F5000696D20256973002569642025696820254D
:100F6000696D20256973002569792025696420252C
:100F700069682025696D20256973005072696E7457
:100F80002074696D653A20006F6B006F666600A281
:100F9000029D0296028F02810244454255473A0063
:100FA0004D3131322053687574646F776E004D3166
:100FB00031332053005265706C696361746F722025
:100FC0004F46462E002F2F004D31343520533C69BB
:100FD0006E6465783E206F7574206F662072616E56
:100FE00067652028302D31290A003F4A206F75742B
:100FF000206F662072616E67652028302E303120A8
:10100000746F20302E33290A0046523A0020466C75
:101010006F773A200064697300656E0043290A0007
:1010200061626C656420286D696E2074656D702046
:1010300000436F6C64206578747275646573206119
:10104000726520004D34323120696E636F727265B3
:10105000637420706172616D65746572207573616F
:1010600067650A004D65736820706F696E74206F44
:101070007574206F662072616E67650A00416C743A
:10108000657261C3A7C3A36F2061706C69636164FB
:1010900061004572723A20546F6F206661722100C0
:1010A000546F6F206661722066726F6D2072656684
:1010B0006572656E636520706F696E740A004545E0
:1010C00050524F4D2064697361626C65640A002060
:1010D00074656D7065726174757265207072657784
:1010E00061726E207472696767657265643A200088
:1010F0002074656D706572617475726520707265BB
:101100007761726E207472696767657265643A20F0
:10111000002074656D7065726174757265207072FF
:10112000657761726E207472696767657265643A8B
:1011300020002074656D7065726174757265207031
:1011400072657761726E2074726967676572656433
:101150003A200020686F6D696E672073656E736951
:101160007469766974793A200020686F6D696E67DA
:101170002073656E73697469766974793A20004DDD
:10118000383400446F6E65207072696E74696E67E2
:101190002066696C650A004D3737004D33310049D0
:1011A0006E76616C69642065787472756465720A24
:1011B0000041425300504C410020204D3230362037
:1011C0005800486F6D65206F6666736574004361F3
:1011D000703A004D4541545041434B00434F4F4CF2
:1011E00045525F54454D5045524154555245004378
:1011F00048414D4245525F54454D5045524154552A
:10120000524500424142595354455050494E4700BF
:1012100041524353004D4F54494F4E5F4D4F44454B
:101220005300544845524D414C5F50524F54454332
:1012300054494F4E004C4F4E475F46494C454E4136
:101240004D45004155544F5245504F52545F534401
:101250005F5354415455530053445F5752495445CA
:1012600000524550454154005344434152440050BC
:10127000524F4D50545F535550504F525400484FA9
:1012800053545F414354494F4E5F434F4D4D414E80
:10129000445300454D455247454E43595F504152D6
:1012A00053455200434153455F4C494748545F42C0
:1012B00052494748544E45535300544F47474C45B5
:1012C0005F4C494748545300534F46545741524589
:1012D0005F504F574552004255494C445F5045526C
:1012E00043454E54004C4556454C494E475F44419A
:1012F0005441005A5F50524F42450052554E4F558F
:1013000054004155544F4C4556454C005052494E9F
:10131000545F4A4F420050524F4752455353004189
:1013200055544F5245504F52545F54454D50004113
:1013300055544F5245504F52545F504F5300564FE3
:101340004C554D455452494300454550524F4D0070
:1013500042494E4152595F46494C455F5452414EB5
:10136000534645520053455249414C5F584F4E5FDA
:10137000584F4646004649524D574152455F4E41EF
:101380004D453A4D61726C696E20322E302E392EE9
:101390003220284F637420333120323032312031F3
:1013A000363A32343A34342920534F555243455F4C
:1013B000434F44455F55524C3A6769746875622ED5
:1013C000636F6D2F4D61726C696E4669726D7761E6
:1013D00072652F4D61726C696E2050524F544F43AD
:1013E0004F4C5F56455253494F4E3A312E30204DA7
:1013F000414348494E455F545950453A5265706CD7
:10140000696361746F722045585452554445525F68
:10141000434F554E543A3120555549443A6365641B
:1014200065326132662D343161322D343734382DD6
:10143000396231322D63353563363266333637667D
:10144000660A00290A0020746F20003F5A206F7539
:1014500074206F662072616E6765202800290A007B
:1014600020746F20003F59206F7574206F662072C2
:10147000616E676520282D00290A0020746F200006
:101480003F58206F7574206F662072616E6765200B
:10149000282D00203B0020204D3835312058005A9F
:1014A0002D50726F6265204F666673657400205719
:1014B0003A00526573667269616E646F2E2E2E005B
:1014C0004171756563656E646F2E2E2E0045312067
:1014D00025530020573A004573667269616E646F48
:1014E000206D6573612E2E2E004171756563656EEA
:1014F000646F206D6573612E2E2E0023646566690E
:101500006E652044454641554C545F004B642000B5
:101510004B6920004B702000504944204175746F86
:1015200074756E652066696E697368656421205004
:10153000757420746865206C617374204B702C2066
:101540004B6920616E64204B6420636F6E7374611D
:101550006E74732066726F6D2062656C6F772069A0
:101560006E746F20436F6E66696775726174696F20
:101570006E2E680A00504944204175746F74756E70
:1015800065206661696C6564212074696D656F759D
:10159000740A00504944204175746F74756E65205B
:1015A0006661696C6564212054656D706572617453
:1015B00075726520746F6F20686967680A0050490A
:1015C00044204379636C65730025532025692F25DA
:1015D0006900204B643A2000204B693A2000204BE0
:1015E000703A200020436C61737369632050494452
:1015F000200A002054753A2000204B753A20002024
:101600006D61783A2000206D696E3A200020643ABE
:10161000200020626961733A20002553005049443C
:10162000204175746F74756E652073746172740AED
:1016300000504944204175746F74756E6520666171
:10164000696C6564212054656D7065726174757292
:101650006520746F6F20686967680A0050494420EC
:101660004175746F74756E65206661696C6564217F
:1016700020426164206865617465722069640A00B3
:10168000504944204175746F74756E6500A1000067
:10169000006900A20000006300B00000000900C162
:1016A0000000004100C20000004100C300000041F2
:1016B00000C40000004100C50000004100C6000059
:1016C000004145C70000004300C80000004500C9B4
:1016D0000000004500CD0000004900D10000004E90
:1016E00000D50000004F00D60000004F00D70000DA
:1016F000007800DC0000005500DD0000005900E02B
:101700000000006100E10000006100E200000061F3
:1017100000E30000006100E40000006100E500005B
:10172000006100E60000006165E70000006300E87A
:101730000000006500E90000006500EA00000065A7
:1017400000EB0000006500EC0000006900ED000007
:10175000006900EE0000006900EF0000006900F180
:101760000000006E00F20000006F00F30000006F48
:1017700000F40000006F00F50000006F00F60000AC
:10178000006F00F80000006F00F90000007500FA1B
:101790000000007500FB0000007500FC00000075F3
:1017A00000FD0000007900FF000000790004010046
:1017B0000041000501000061000601000043000730
:1017C00001000063000C01000043000D01000063F4
:1017D000000E01000044000F010000640011010030
:1017E0000064001901000065001A01000045001B9B
:1017F00001000065001F0100006700300100004982
:1018000000310100006900410100004C004201006C
:10181000006C00430100004E00440100006E0048CF
:101820000100006E005801000052005901000072D2
:10183000005A01000053005B01000073005F0100CB
:101840000073006001000053006101000073006537
:1018500001000074006F01000075007C0100007A37
:10186000007D0100005A007E0100007A0092010014
:10187000006600E30200007800222000002E001E17
:10188000210000507822210000544D902100003C9E
:101890002D922100002D3EB02100000300BB21004D
:1018A0000004003C2200007E00482200007E3D60D3
:1018B000220000213D612200003D00642200003C26
:1018C0003D652200003E3DF12300000700A03000EE
:1018D000003D0021F301000200C2F401000500A256
:1018E000000000EC00B0000000DF00E4000000E1B8
:1018F00000F6000000EF00F7000000FD00FC000013
:1019000000F500E3020000EB0087030000A5008F54
:10191000030000F40098030000F2009E030000E3BF
:1019200000A3030000F600A9030000F400AC0300CC
:1019300000E000AD030000E300B1030000E000B2EE
:10194000030000E200B5030000E300B8030000F26A
:1019500000BC030000E400BE030000E300C003007D
:1019600000F700C1030000E600C3030000E500909B
:101970002100007F00922100007E001A220000E872
:10198000001E220000F30088250000FF0002300046
:1019900000A1000C300000A2000D300000A3009B4D
:1019A000300000DE009C300000DF00A03000003D71
:1019B00000A1300000A700A2300000B100A3300059
:1019C00000A800A4300000B200A5300000A900A6C5
:1019D000300000B300A7300000AA00A8300000B417
:1019E00000A9300000AB00AA300000B500AB300009
:1019F00000B600AC300000B6DEAD300000B700AE7F
:101A0000300000B7DEAF300000B800B0300000B8E2
:101A1000DEB1300000B900B2300000B9DEB33000F2
:101A200000BA00B4300000BADEB5300000BB00B62A
:101A3000300000BBDEB7300000BC00B8300000BC96
:101A4000DEB9300000BD00BA300000BDDEBB3000A2
:101A500000BE00BC300000BEDEBD300000BF00BED6
:101A6000300000BFDEBF300000C000C0300000C04A
:101A7000DEC1300000C100C2300000C1DEC3300052
:101A800000AF00C4300000C200C5300000C2DEC696
:101A9000300000C300C7300000C3DEC8300000C4FF
:101AA00000C9300000C4DECA300000C500CB3000E1
:101AB00000C600CC300000C700CD300000C800CE0A
:101AC000300000C900CF300000CA00D0300000CA8A
:101AD000DED1300000CADFD2300000CB00D33000AE
:101AE00000CBDED4300000CBDFD5300000CC00D6F8
:101AF000300000CCDED7300000CCDFD8300000CD85
:101B000000D9300000CDDEDA300000CDDFDB300060
:101B100000CE00DC300000CEDEDD300000CEDFDEA7
:101B2000300000CF00DF300000D000E0300000D1F6
:101B300000E1300000D200E2300000D300E33000CA
:101B400000AC00E4300000D400E5300000AD00E659
:101B5000300000D500E7300000AE00E8300000D6CD
:101B600000E9300000D700EA300000D800EB300078
:101B700000D900EC300000DA00ED300000DB00EFAF
:101B8000300000DC00F2300000A600F3300000DD81
:101B900000F4300000B3DEF7300000DCDEFA300085
:101BA00000A6DEFB300000A500FC300000B000FD08
:101BB000300000A400074E0000FB0086510000FC2E
:101BC0000043530000FA0064FF0000A40065FF001A
:101BD00000A50066FF0000A60067FF0000A70068E0
:101BE000FF0000A80069FF0000A9006AFF0000AA2A
:101BF000006BFF0000AB006CFF0000AC006DFF004D
:101C000000AD006EFF0000AE006FFF0000AF00707F
:101C1000FF0000B00071FF0000B10072FF0000B2D1
:101C20000073FF0000B30074FF0000B40075FF00F4
:101C300000B50076FF0000B60077FF0000B700781F
:101C4000FF0000B80079FF0000B9007AFF0000BA79
:101C5000007BFF0000BB007CFF0000BC007DFF009C
:101C600000BD007EFF0000BE007FFF0000BF0080BF
:101C7000FF0000C00081FF0000C10082FF0000C221
:101C80000083FF0000C30084FF0000C40085FF0044
:101C900000C50086FF0000C60087FF0000C700885F
:101CA000FF0000C80089FF0000C9008AFF0000CAC9
:101CB000008BFF0000CB008CFF0000CC008DFF00EC
:101CC00000CD008EFF0000CE008FFF0000CF0090FF
:101CD000FF0000D00091FF0000D10092FF0000D271
:101CE0000093FF0000D30094FF0000D40095FF0094
:101CF00000D50096FF0000D60097FF0000D700989F
:101D0000FF0000D80099FF0000D9009AFF0000DA18
:101D1000009BFF0000DB009CFF0000DC009DFF003B
:101D200000DD009EFF0000DE009FFF0000DF00E5F9
:101D3000FF00005C0000000000010204040000003D
:101D40001C1C0C0404040201000000000004081024
:101D500000000000002D2D2D2D2D2D007C4D6172D9
:101D60006C696E7C002D2D2D2D2D2D00001C1F115A
:101D7000111F00000006191803130C00040E1F04A5
:101D80001C000000000E1315110E00001C10181787
:101D900005060500040A0A0A0A11110E0C12120C9B
:101DA00000000000001F1511151F00004D65736134
:101DB00000456E636C6F73757265002D2D2D005399
:101DC000440020202020202020002020202000630C
:101DD000616E63656C00496D7072657373C3A36F48
:101DE0002041626F7274616461004D323500506150
:101DF0007573696E672E2E2E00726573756D6500A2
:101E00004D3234004469C3A26D6574726F20466917
:101E10006C2E00457874727573C3A36F20656D20B6
:101E20006D6DC2B3002002204661746F7200200203
:101E3000204DC3A178002002204D696E00446573D7
:101E40006C696761646F004C696761646F00546519
:101E50006D702E204175746F6DC3A174696361004C
:101E6000564465736C6F63616D656E746F206D6948
:101E70006E004D696E2056656C6F63697479004D14
:101E8000617820452056656C004D6178205A2056B7
:101E9000656C004D617820592056656C004D617865
:101EA00020582056656C004D6178204520416363C1
:101EB000656C004D6178205A20416363656C004D6C
:101EC0006178205920416363656C004D617820582A
:101ED00020416363656C004D6F76696D656E746F4C
:101EE000204100526574726169722041004163654E
:101EF0006C2E00436F6D70656E73617220536F6E50
:101F0000646120656D205A00436F6D70656E73616A
:101F10007220536F6E646120656D205900436F6DB0
:101F200070656E73617220536F6E646120656D2001
:101F30005800452F6D6D00506173736F205A2F6DDF
:101F40006D00506173736F20592F6D6D0050617378
:101F5000736F20582F6D6D00436F6E6669672E207A
:101F60004176616EC3A7616461004D34323800462A
:101F7000696C616D656E746F0054656D706572613A
:101F80007475726100544D432044726976657273B2
:101F900000506173736F2F6D6D00436F6D70656ED0
:101FA00073617220536F6E646100446573762E20F6
:101FB0004A756EC3A7C3A36F004163656C65726108
:101FC000C3A7C3A36F0056656C6F636964616465E2
:101FD00000436F6D70656E736172206F7269676523
:101FE0006D00436F6E666967757261C3A7C3A36FA7
:101FF000004D65736100426F63616C0056656C2E25
:102000002056656E746F696E686100436F6E666915
:1020100067757261C3A7C3A36F005265737461755E
:10202000726F2073656775726F00416A75737461B2
:1020300072202400436F6D70656E73617220536F60
:102040006E646120656D205A00436F6E6669672E6D
:10205000204176616EC3A7616461004D656E752095
:102060007072696E636970616C003F00566F6C74CA
:1020700061720050617261720053656D206361721C
:1020800074C3A36F20534400496D7072696D697207
:1020900020646F2053440054726F63617220534474
:1020A000004D32310054656D7065726174757261F6
:1020B000004D6F76696D656E746F00436F6E746965
:1020C0006E75617220696D7072657373C3A36F0062
:1020D000436F6E666967757261C3A7C3A36F0041E2
:1020E0006A757374617200506172617220696D70FB
:1020F00072657373C3A36F00506175736172206959
:102100006D7072657373C3A36F00496E666F726DF5
:1021100061C3A7C3B56573003F00496E6963696118
:102120007220496D7072657373C3A36F0043616E53
:1021300063656C617200496D7072696D697200430C
:10214000616E6E6F7420656E746572207375626463
:1021500069723A200005202E2E004D656E752070A4
:1021600072696E636970616C0021004578747275E4
:10217000732E206D746F206672696100566F6C74E7
:10218000617200436F6E74696E756172004D6F7697
:10219000696D656E746F004465736162696C697422
:1021A0002E206D6F746F726573004D383400537557
:1021B0006176697A617220616C7475726100446540
:1021C000736C696761646F004C696761646F004E8E
:1021D0006976656C61C3A7C3A36F204D6573610009
:1021E0004E6976656C6172204D65736100473239C6
:1021F0004E0049722061206F726967656D205859E1
:102200005A00473238004D656E75207072696E63F2
:102210006970616C004578747275736F7261202407
:10222000005072652D61712E4D657361202400543C
:10223000656D706572617475726100B511B111459B
:10224000736672696172005072652D6171756563A4
:10225000657220240056656C2E2056656E746F6979
:102260006E6861004D65736100426F63616C004D83
:10227000656E75207072696E636970616C004531BE
:10228000005A0059005800590058004531005A00C2
:1022900059004465736C696761646F004C696761DC
:1022A000646F005800544D43204472697665727320
:1022B00000537465616C746843686F7020456E618B
:1022C000626C6564005374657070696E67204D6F51
:1022D00064650053656E736F726C65737320486F2D
:1022E0006D696E670044726976657220437572721B
:1022F000656E7400436F6E6669672E204176616E6D
:10230000C3A76164610056617AC3A36F0056656C10
:102310002E2056656E746F696E6861004D6573613D
:1023200000426F63616C0056656C6F636964616441
:1023300065004D656E75207072696E636970616CC1
:10234000006F70656E00545249474745524544003E
:102350003A20007A5F6D696E00795F6D696E007872
:102360005F6D6178005265706F7274696E67206589
:102370006E6473746F70207374617475730A0020D7
:10238000746F6F206C6F6E672065787472757369F7
:102390006F6E2070726576656E7465640A002063E6
:1023A0006F6C6420657874727573696F6E207072DB
:1023B0006576656E7465640A00486F6D65202573E7
:1023C00025732573205072696D6569726F00000076
:1023D0003E430000F0C1000000005761726E696E5C
:1023E000673A20486F6D696E672042756D702044B2
:1023F000697669736F72203C20310A000202040082
:10240000003E4300003E43000048430000A040005F
:1024100000A0400000004000003E430000204300B8
:10242000004843000000000000F0C1000000004828
:10243000617264636F6465642044656661756C7481
:102440002053657474696E6773204C6F61646564B2
:102450000A0000001644000016440000C8420000B4
:102460009643EBA29E4230AA9D424DF4CA43A1E797
:102470001743E8030000E803000064000000E803DD
:10248000000020286D6D2900203B204C6576656C8E
:10249000696E67200020204D343230205300417592
:1024A000746F20426564204C6576656C696E6700C8
:1024B00020460020420020480020204D31343520A5
:1024C00053004D6174657269616C20686561747553
:1024D0007020706172616D65746572730020204DAB
:1024E00039303600205430204500537465707065D3
:1024F00072206472697665722063757272656E749B
:102500000020204D393134005374616C6C47756183
:102510007264207468726573686F6C640020204D6B
:1025200035363920533100543020450020580044BE
:102530007269766572207374657070696E67206D5C
:102540006F646500204A0020204732392057204917
:102550000020204D3134392043203B20556E6974D2
:102560007320696E2043656C736975730A00546546
:102570006D706572617475726520556E6974730053
:102580002020473231203B004C696E656172205536
:102590006E6974730024F4D43050C38E20C2A240FC
:1025A00017828B7011127A910D816CD90AA861E1A2
:1025B00008C7586607615143061E4B5D05C145A714
:1025C000041A411104093D9803713931034036DB87
:1025D0000265339102D4305402802E1D02632CEE2A
:1025E00001752AC501B028A001102781018F25643B
:1025F000012B244B01E0223401AC211F018D200D61
:1026000001801FFC00841EED00971DDF00B81CD266
:1026100000E61BC600201BBC00641AB200B219A859
:10262000000A19A0006A189900D117910040178B71
:1026300000B516840031167E00B31579003A157383
:1026400000C7146F0058146A00EE13660088136305
:102650000025135E00C7125B006C12570015125460
:1026600000C111510070114F0021114B00D61049CB
:10267000008D1047004610440002104200C00F4079
:1026800000800F3E00420F3C00060F3B00CB0E388F
:1026900000930E37005C0E3500270E3400F30D3228
:1026A00000C10D3100900D3000600D2E00320D2D57
:1026B00000050D2C00D90C2B00AE0C2900850C292F
:1026C000005C0C2700350C27000E0C2600E80B24BC
:1026D00000C40B2400A00B23007D0B23005A0B2108
:1026E00000390B2100180B2000F80A1F00D90A1E20
:1026F00000BB0A1E009D0A1D00800A1D00630A1C03
:1027000000470A1B002C0A1B00110A1A00F7091ABD
:1027100000DD091900C4091900AB09190092091755
:10272000007B091800630917004C091600360916CA
:1027300000200916000A091500F5081500E0081424
:1027400000CC081400B8081400A408140090081362
:10275000007D0812006B081300580812004608128A
:10276000003408110023081100120811000108119B
:1027700000F0071000E0071000D0071000C007109D
:1027800000B0070F00A107100091070E0083070F8C
:102790000074070F0065070E0057070E0049070E6B
:1027A000003B070D002E070E0020070D0013070D3C
:1027B0000006070D00F9060C00ED060D00E0060C02
:1027C00000D4060C00C8060C00BC060C00B0060CB9
:1027D00000A4060B0099060C008D060B0082060B68
:1027E0000077060B006C060B0061060A0057060B0B
:1027F000004C060A0042060A0038060A002E060AA5
:102800000024060A001A060A001006090007060A34
:1028100000FD050900F4050900EB050900E20509C2
:1028200000D9050900D0050900C7050900BE050942
:1028300000B5050800AD050800A50509009C0508C0
:1028400000940508008C050800840508007C050834
:1028500000740508006C050700650508005D0507A4
:1028600000560508004E050700470507004005080B
:102870000038050700310507002A05070023050772
:10288000001C050600160507000F050700080506D1
:102890000002050700FB040600F5040700EE04062D
:1028A00000E8040600E2040700DB040600D5040685
:1028B00000CF040600C9040600C3040600BD0406D8
:1028C00000B7040600B1040500AC040600A6040627
:1028D00000A00405009B0406009504050090040672
:1028E000008A04050085040500800406007A0405BA
:1028F0000075040500700405006B040500660405FE
:1029000000610405005C040500570405005204053D
:10291000004D04050048040500430405003E04047E
:10292000003A04050035040500300404002C0405B9
:102930000027040400230405001E0404001A0404F4
:102940000016040500110404000D04040009040528
:10295000000404040000040400FC030400F8030461
:1029600000F4030400F0030400EC030400E8030493
:1029700000E4030400E0030400DC030400D80304C3
:1029800000D4030400D0030400CC030400C80303F4
:1029900000C503030024F404D9201BC40C5C0E986A
:1029A00004C4095F0265077101F405F900FB04B373
:1029B0000048048700C1036900580355000303451C
:1029C00000BE023A008402310053022A0029022587
:1029D0000004022000E4011C00C8011900AF011727
:1029E00000980114008401130071011000610110AE
:1029F0000051010E0043010D0036010B002B010BAD
:102A00000020010B00150109000C01090003010859
:102A100000FB000800F3000800EB000700E40006DC
:102A200000DE000600D8000600D2000600CC00053B
:102A300000C7000500C2000500BD000400B9000485
:102A400000B5000400B1000400AD000400A90004BA
:102A500000A5000300A20003009F0004009B0003E8
:102A6000009800030095000200930003009000030B
:102A7000008D0002008B0003008800020086000227
:102A80000084000300810002007F0002007D00023C
:102A9000007B00020079000200770001007600024E
:102AA000007400020072000100710002006F000259
:102AB000006D0001006C0002006A00010069000264
:102AC000006700010066000100650001006400026B
:102AD000006200010061000100600001005F00026F
:102AE000005D0001005C0001005B0001005A000174
:102AF0000059000100580001005700010056000174
:102B00000055000100540001005300000053000173
:102B1000005200010051000100500001004F00016F
:102B2000004E0000004E0001004D0001004C00016D
:102B3000004B0000004B0001004A00010049000169
:102B40000048000000480001004700010046000066
:102B5000004600010045000000450001004400015E
:102B60000043000000430001004200000042000159
:102B7000004100000041000100400001003F000052
:102B8000003F0001003E0000003E0001003D00004B
:102B9000003D0001003C0000003C0000003C000142
:102BA000003B0000003B0001003A0000003A000139
:102BB0000039000000390001003800000038000032
:102BC0000038000100370000003700010036000027
:102BD000003600000036000100350000003500001E
:102BE0000035000100340000003400000034000112
:102BF0000033000000330000003300010032000009
:102C000000320000003200010031000000310000FD
:102C100000310001003000000030000000300001F1
:102C2000002F0000002F0000002F0000002F0001E7
:102C3000002E0000002E0000002E0001002D0000DC
:102C4000002D0000002D0000002D0001002C0000D0
:102C5000002C0000002C0000002C0001002B0000C4
:102C6000002B0000002B0000002B0001002A0000B8
:102C7000002A0000002A0000002A000100290000AC
:102C8000002900000029000000290000002900019F
:102C90000028000000280000002800000028000094
:102CA0000028000100270000002700000027000086
:102CB0000027000000270001002600000026000079
:102CC000002600000026000000260001002500006C
:102CD0000025000000250000002500000025000060
:102CE0000025000100240000002400000024000052
:102CF0000024000000240001002300000023000045
:102D00000023000000230000002300000023000037
:102D10000023000100220000002200000022000029
:102D2000002200000022000000220001002100001B
:102D3000002100000021000000210000002100000F
:102D40000021000000210001002000000020000000
:102D500000200000002000000020000000200000F3
:102D60000020000000200001001F0000001F0000E4
:102D7000001F0000001F0000001F0000001F0000D7
:102D8000001F0001001E0000001E0000001E0000C9
:102D9000001E000000043700001E290000511B0027
:102DA000005810000010090000CC04000078020058
:102DB000004101000020436F756E7420583A004DA9
:102DC000657361004531004500626564002C207325
:102DD000797374656D2073746F7070656421204819
:102DE00065617465725F49443A200041717565639D
:102DF000696D656E746F2066616C686F75004865FB
:102E00006174696E67206661696C65640045727201
:102E10006F3A54656D70204DC3A178696D61004DA6
:102E2000415854454D5020747269676765726564F6
:102E3000004572726F3A54656D70204DC3AD6E6976
:102E40006D61004D494E54454D502074726967675D
:102E500065726564004553434150452054C389520F
:102E60004D49434F00546865726D616C2052756E18
:102E70006177617900202F002042403A0020403ADB
:102E8000007C3C3E5E2B3D3F2F5B5D3B2C2A225C51
:102E90000043616E6E6F74206F70656E2073756293
:102EA0006469722000534420496E69742046616948
:102EB0006C0053442063617264206F6B0A006F7072
:102EC000656E526F6F74206661696C65640A007686
:102ED0006F6C756D652E696E6974206661696C65CD
:102EE000640A004E6F20534420636172640A000A32
:102EF0004D3234004D3233202573002E0A006F709E
:102F0000656E206661696C65642C2046696C653A63
:102F1000200046696C652073656C65637465640A9E
:102F2000002053697A653A200046696C65206F700D
:102F3000656E65643A2000454E4420535542524F19
:102F40005554494E450A002220706F7300222070AC
:102F50006172656E743A2200535542524F5554497E
:102F60004E452043414C4C207461726765743A228F
:102F70000053756263616C6C204F766572666C6F8E
:102F800077004578636565646564206D61782053DA
:102F90005542524F5554494E452064657074683A05
:102FA0000057726974696E6720746F2066696C657A
:102FB0003A2000667265736800646F696E6700206E
:102FC00066696C653A20004E6F7720002F6175743A
:102FD0006F25632E670000002000230026002900D3
:102FE0002C002F003200000100000301060109013E
:102FF000026D61726C696E66772E6F7267006D612B
:10300000726C696E66772E6F7267006D61726C69A3
:103010006E66772E6F726700322E302E392E320098
:10302000322E302E392E3200322E302E392E3200F2
:103030006D61726C696E66772E6F7267006D61727A
:103040006C696E66772E6F7267006D61726C696E67
:1030500066772E6F72670020322E302E392E3200A6
:1030600070012C0190012701B0012201C0011D0156
:10307000F00118011002130130020E016002090173
:1030800090020401C002FF000003FA004003F500B3
:103090008003F000D003EB002004E6007004E100A0
:1030A000E004DC004005D700C005D2004006CD009A
:1030B000D006C8008007C3003008BE00F008B90081
:1030C000C009B400B00AAF00B00BAA00D00CA50034
:1030D000000EA000500F9B00C010960050129100EF
:1030E00000148C00C0158700B0178200B0197D0055
:1030F000D01B7800001E730040206E0090226900F3
:10310000F024640040275F0090295A00E02B55000E
:10311000102E500020304B0010324600E0334100AA
:1031200090353C001037370070383200A0392D0040
:10313000B03A2800A03B2300603C1E00103D19005F
:10314000903D1400103E0F00703E0A00C03E050086
:10315000003F0000403FFBFF803FF6FFC03FF1FF14
:103160002020506C616E6E657242756666657242B3
:10317000797465733A20002046726565204D656D4F
:103180006F72793A200020436F6D70696C65643A04
:10319000204F637420333120323032310A00204C0A
:1031A00061737420557064617465643A2032303202
:1031B000312D30392D3033207C20417574686F7289
:1031C0003A20286E6F6E652C2064656661756C749C
:1031D00020636F6E666967290A004D61726C696EC3
:1031E00020322E302E392E320A0020536F6674772B
:1031F0006172652052657365740A002057617463BB
:1032000068646F672052657365740A002042726FAC
:10321000776E206F75742052657365740A002045BF
:10322000787465726E616C2052657365740A005023
:103230006F77657255700A0073746172740A004783
:1032400032385859004D31303031006F6B006572A3
:10325000726F722077726974696E6720746F20666E
:10326000696C650A00446F6E6520736176696E67EC
:103270002066696C652E0A004D32390046696E730E
:1032800020646520637572736F00255320256320C9
:10329000256320256320256300205A3A0020593AEF
:1032A0000020583A00656E6473746F70732068690B
:1032B000743A200000002100240027002A002D007D
:1032C0003000330001010000040107010A01000081
:1032D0002200250028002B002E00310034000201BE
:1032E0000000050108010B01050505050705080893
:1032F0000808020202020A0A080804040404010180
:103300000101010101010303030303030303040794
:1033100007070C0C0C0C0C0C0C0C0202020206062B
:103320000606060606060B0B0B0B0B0B0B0B01021E
:1033300010202008081020401020408002010201C7
:10334000080402010102040810204080804020107F
:1033500008040201800402018040201008040201D8
:103360000804020101020408102040800102040840
:103370001020408000000A0B02090C0D0E08070304
:103380000401000000000000000000000000000038
:10339000000000000000000000000000000000002D
:1033A00012111000000000000000000000000000EA
:1033B00000000000000000000000004D6F76657204
:1033C0002025736D6D004D6F76657220302E316D46
:1033D0006D004D6F76657220316D6D004D6F7665B5
:1033E000722031306D6D004D6F76657220656978A1
:1033F0006F004D6F766572204578747275736F72C9
:10340000004D6F766572205A004D6F7665722059B7
:10341000004D6F766572205800496D7072696D6954
:103420007220646F2053440046616C686120616FB4
:1034300020697220C3A0206F726967656D0001FF6B
:10344000FF50726F62696E67204661696C65640A3D
:103450000046616C686120616F20736F6E646172F9
:1034600000205A3A200020593A2000426564205832
:103470003A20005265706C696361746F72207072DB
:103480006F6E746F2E00496D7072696D696E646F36
:103490002E2E2E00496D7072657373C3A36F20507A
:1034A0006175736164610020453A00205A3A00203A
:1034B000593A00583A00204500205A00205900206F
:1034C000204D393220580053746570732070657236
:1034D00020756E697400307800220A00556E6B6E9C
:1034E0006F776E20636F6D6D616E643A202200DB32
:1034F0000FC93F45BCDA3F8FB30240FCF02740566E
:10350000946140FE4B9B4084A5D840E02318413491
:103510006A5641E859974164DBD5416E271742B49A
:10352000B75542CE1A9742C8AED542B5885A43D451
:103530000684BFA65FA7BF7443E0BF10B11AC01CCA
:103540002C58C0E8F697C0B849D6C04E4E17C124D3
:10355000D355C1802497C1A0B5D5C1121A17C24452
:10356000AE55C2781797C26CACD5C267885AC320D3
:10357000746F6F206C6F6E672065787472757369F5
:103580006F6E2070726576656E7465640A002063E4
:103590006F6C6420657874727573696F6E207072D9
:1035A0006576656E7465640A006F6B0A0052657318
:1035B000656E643A20002F2F616374696F6E3A0064
:1035C000A200A00011241FBECFEFD1E2DEBFCDBF0D
:1035D00000E00CBF13E0A0E0B2E0E2EBFCE302E0AD
:1035E0000BBF02C007900D92AA35B107D9F724E1AD
:1035F000AAE5B3E001C01D92A830B207E1F71AE1D5
:10360000C1EEDAE100E006C021970109802FFE013A
:103610000F94F81AC03ED10780E00807A9F70F946D
:10362000C5070D94481E0C940000282F9091BE03EE
:10363000833021F495FD0FC094FD0FC0892F90E0D9
:10364000B0E0A0E004C0B695A795979587952A9518
:10365000D2F78170089581E0089580E00895809107
:10366000DF0384FD0BC08091E10387FD07C09091CB
:10367000E203937081E019F480E0089581E00895F9
:10368000CF92DF92EF92FF920F931F93CF93DF932E
:1036900000D000D01F921F92CDB7DEB7DC01ED91B4
:1036A000FC910084F185E02D1995AB01BC01072F39
:1036B00011272227332749835A836B837C83680130
:1036C000790192E0F694E794D794C7949A95D1F74C
:1036D0008D81C0FA80F968017901F694E794D79456
:1036E000C794C0FA81F98D8368017901B8E1CB22D2
:1036F000DD24EE24FF2481E0CD28CE28CF2809F454
:1037000080E09D8180FB92F900FB94F956FB8827AD
:1037100080F980FB95F907FB96F907FB97F990581C
:10372000862F8F71FA01F370F887EF8329813A8130
:103730004B815C81692F782F8E2F988528960FB644
:10374000F894DEBF0FBECDBFDF91CF911F910F91D7
:10375000FF90EF90DF90CF9008952F923F924F927D
:103760005F926F927F928F929F92AF92BF92CF9211
:10377000DF92EF92FF920F931F93CF93DF93CDB71A
:10378000DEB72E970FB6F894DEBF0FBECDBFF82E72
:10379000E62E042F122F282F30E03A872987862F14
:1037A00090E09C878B87220F331FA985BA852A0F4B
:1037B0003B1F3E872D87FC01E20FF31FEE0FFF1F1B
:1037C000EE0FFF1FEB57FB4F608171818281938168
:1037D0009B01AC010F94C81D882309F440C1802FC0
:1037E0008F0D612F6E0D282F30E0F901EE0FFF1FB6
:1037F000E20FF31FAB85BC85AE0FBF1FAA0FBB1F27
:10380000AA0FBB1FAB57BB4FAC901196BC90119742
:103810001296CC9012971396DC90080F802F90E0B0
:10382000AC01440F551F480F591FAB85BC85A40F31
:10383000B51FAA0FBB1FAA0FBB1FAB57BB4FEC9006
:103840001196FC90119712960C91129713969C90DA
:10385000862F90E0AD85BE85A80FB91FAA0FBB1FAC
:10386000AA0FBB1FAB57BB4F8C9011967C90119742
:1038700012966C90129713965C90610F70E02D85F4
:103880003E85260F371F220F331F220F331F2B5762
:103890003B4F3E872D87D9014C9011963C90119754
:1038A00012961C91129713962C90E80FF91FEE0FA9
:1038B000FF1FEE0FFF1FEB57FB4FB081B983218134
:1038C0002A8332813B8383818C83FA01E60FF71FC1
:1038D000EE0FFF1FEE0FFF1FEB57FB4F90819D83F5
:1038E000A181AE83B281BF83238128879701402FB6
:1038F000592DB701802F992D0F94C81D882321F0D1
:10390000E12CF12C00E0912C9501A601B501C60136
:103910000F94C81D882319F05701C02ED92C242DCF
:10392000332D412F522D642D732D812F922D0F9405
:10393000C81D882321F0412C312C10E0212C282D8A
:10394000372D462D552D682D772D862D952D0F94CD
:10395000C81D882321F0842C732C612E522C2D81BC
:103960003E814F8158856D817E818F8198850F942E
:10397000C81D882321F01D821E821F82188629817E
:103980003A814B815C8169817A818B819C810F9422
:10399000C81D882341F03D8139838E818A839F81B0
:1039A0009B83A885AC83E985FA85EE0FFF1F2985E7
:1039B0003A85E20FF31F8B859C85E80FF91FEE0F08
:1039C000FF1FEE0FFF1FEB57FB4FFA87E9879501AB
:1039D000A601B501C6010F94191B9701402F592D5F
:1039E0000F94181B6B017C01282D372D462D552D6A
:1039F000682D772D862D952D0F94191B242D332D91
:103A0000412F522D0F94181B9B01AC01C701B60129
:103A10000F94191B6B017C0129813A814B815C81D8
:103A200069817A818B819C810F94191B2D813E8144
:103A30004F8158850F94181B9B01AC01C701B6013B
:103A40000F94191B20E030E040E450E40F94F51B84
:103A5000A985BA856D937D938D939C9313972E962C
:103A60000FB6F894DEBF0FBECDBFDF91CF911F918F
:103A70000F91FF90EF90DF90CF90BF90AF909F900D
:103A80008F907F906F905F904F903F902F90089510
:103A9000682F880F770B880B990B0C94B1EC8091F1
:103AA000B3039091B403009731F04AE050E070E026
:103AB00060E00D94751260E070E0CB010895809194
:103AC000B3039091B403009731F04AE050E070E006
:103AD00060E00D94491160E070E0CB0108958091A1
:103AE000A606882319F080E00E94ADCF80E00895FB
:103AF0004F925F926F927F928F929F92AF92BF92FE
:103B0000CF92DF92EF92FF92CF93DF9300D000D05D
:103B10001F921F92CDB7DEB75C01DB01CD90DD9027
:103B2000ED90FC90E0913112F0913212FE83ED8322
:103B300084819581A681B78189839A83AB83BC8375
:103B40009C01AD01C701B6010F94181B2B013C016C
:103B5000F50180809180A280B380AD81BE818D917E
:103B60009D910D90BC91A02D8D839E83AF83B887CE
:103B700024E330E040EF51ECC301B2010F94401D4B
:103B800087FDD2C027E030E040E253E4C301B20138
:103B90000F944D1418160CF4C7C02D813E814F812F
:103BA0005885C501B4010F94181B2B013C0127E176
:103BB00037EB41ED58EB0F94401D87FDB5C027E072
:103BC00030E04EE353E4C301B2010F944D141816D4
:103BD0000CF4AAC020E030E0A9016D817E818F81C4
:103BE00098850F94191B2B013C0120E030E040E246
:103BF00051E40F944D1487FF06C0412C512C30E244
:103C0000632E31E4732E27E137EB41ED58E3C30116
:103C1000B2010F94181B9B01AC01C501B4010F94B4
:103C2000401D87FD81C020E030E04EE353E46D810C
:103C30007E818F8198850F94191B2B013C0120E018
:103C400030E046E153E40F94401D181634F4412C43
:103C5000512C26E1622E23E4722E27E137EB41ED51
:103C600058E3C301B2010F94191B9B01AC01C501BC
:103C7000B4010F944D1418160CF456C020E030E037
:103C800040EF51E469817A818B819C810F94181BEC
:103C90004B015C0120E030E040E251E40F944D1410
:103CA00087FF06C0812C912C90E2A92E91E4B92EB9
:103CB00027E137EB41ED58E3C501B4010F94181B20
:103CC0009B01AC01C701B6010F94401D87FD2CC0BC
:103CD00020E030E040E253E469817A818B819C816D
:103CE0000F94191B4B015C0120E030E046E153E4E6
:103CF0000F94401D181634F4812C912C86E1A82EC7
:103D000083E4B82E27E137EB41ED58E3C501B40158
:103D10000F94191B9B01AC01B1E0B983C701B60137
:103D20000F944D1418160CF41982898128960FB639
:103D3000F894DEBF0FBECDBFDF91CF91FF90EF9023
:103D4000DF90CF90BF90AF909F908F907F906F90BB
:103D50005F904F9008958F929F92AF92BF92CF92B3
:103D6000DF92EF92FF92CF93DF93EC018090780483
:103D700090907904A0907A04B0907B0420E030E029
:103D8000A901C501B4010F944D14882309F452C050
:103D9000C880D980EA80FB80A7019601C501B401E3
:103DA0000F944D1418160CF04AC02091A5033091C1
:103DB000A6034091A7035091A803C701B6010F9431
:103DC0004D14882321F1C092A503D092A603E0925E
:103DD000A703F092A8032091A1033091A203409180
:103DE000A3035091A403C701B6010F94B2149B0121
:103DF000AC0160E070E080E89FE30F94181B6093D3
:103E00000B0270930C0280930D0290930E0260914E
:103E10000B0270910C0280910D0290910E02DF91C5
:103E2000CF91FF90EF90DF90CF90BF90AF909F9099
:103E30008F90089560E070E080E89FE3F0CF60E04D
:103E400070E0CB01ECCF3BDE97FD0AC038DE6F3F60
:103E500071058105910509F02CF431DE862F089556
:103E600080E008958FEF08958091B3039091B4039B
:103E7000892B39F0E8DF91E0811101C090E0892FB2
:103E8000089591E0FCCF1BDECB0108950F931F93A3
:103E9000CF938091B3039091B4030097E9F0FC01B4
:103EA0008F01C1912C2F2F7D81F0C53411F0C536C3
:103EB000B9F7F801108270E060E00F94F30FF80199
:103EC000C083CF911F910F91089570E060E0CF9172
:103ED0001F910F910D94F30F60E070E0CB01F1CFD3
:103EE0002FEB280F2A3108F047C0E22FF0E0809135
:103EF000DF039091E003A091E103B091E20304C0DD
:103F0000B695A795979587952A95D2F780FD02C01B
:103F100081700895E054FC4FE081EE2341F18091DF
:103F2000C2069091C306E80FF92FF11D808190ED34
:103F3000980F9A3030F08E3251F4818180538A305C
:103F400098F4F093B403E093B30381E008958D32C5
:103F500011F08B3249F4818190ED980F9A3088F3FB
:103F60008E3211F48281EACFF0E0E0E0EACF1092E5
:103F7000B4031092B303E9CF80E00895B1DF882342
:103F800041F081E02091B3033091B403232B09F475
:103F900080E00895CF92DF92EF92FF926A017B0159
:103FA000EDDF882329F0FF90EF90DF90CF906ECF68
:103FB000C701B601FF90EF90DF90CF9008958F92E8
:103FC0009F92AF92BF92CF92DF92EF92FF920F93A8
:103FD0001F93CF938EE5E82E84E0F82E07E612E0DB
:103FE00095EBC92E96E0D92EC0E088E58C0FC6DF90
:103FF000882309F474C04ADF4B015C018C2F15DB68
:10400000882309F462C0F801208131814281538103
:10401000C501B4010F94191BF7016083718382837A
:104020009383CF5FF4E0EF0EF11C0C5F1F4F84E031
:10403000C80ED11CC330C9F685E4A0DF882309F47B
:1040400059C024DF6B017C0183E0EFDA882371F033
:104050002091730230917402409175025091760262
:10406000C701B6010F94191B6B017C01C0926A0451
:10407000D0926B04E0926C04F0926D0440E050E04A
:10408000BA0186E487DF20E030E0A9010F94401DEB
:1040900018167CF4FBDE20E030E040E752E40F9499
:1040A000F51B60932D0270932E0280932F02909344
:1040B0003002CF911F910F91FF90EF90DF90CF9042
:1040C000BF90AF909F908F900895F601208131812D
:1040D00042815381C501B4010F94181B9DCFF80193
:1040E00080819181A281B381F70180839183A28332
:1040F000B38397CF8091730290917402A09175025F
:10410000B091760280936A0490936B04A0936C0440
:10411000B0936D04B3CFCF93C62F30DF882311F057
:10412000CF9191CE8C2FCF910895CF93DF93C82F4D
:10413000D62F24DF882319F0DF91CF9195CE8C2FD5
:10414000CFDE811101C08D2FDF91CF9108951F9394
:10415000CF93DF93EC01162F40E050E0BA010F94AB
:104160000A00612FCE010F944C008B898E7F8B8BC0
:104170002A89382F8C89482F437050E0E881F981D3
:104180000190F081E02D60E0CE01DF91CF911F9191
:1041900019941F93CF93DF93EC010F947000182FA5
:1041A0004FEF5FEF6FE070E0CE010F940A0060E028
:1041B000CE010F944C008B8981608B8B2A89382F1C
:1041C0008C89482F437050E0E881F9810190F0819B
:1041D000E02D60E0CE011995812FDF91CF911F91E5
:1041E00008952F923F924F925F927F928F929F926B
:1041F000AF92BF92CF92DF92EF92FF920F931F93F5
:10420000CF93DF93D62EC72E742EFC018080918031
:10421000A280B380C501B40120E13EE040E050E05F
:104220000F94611A122F032FC22FD32F8CE3282E45
:10423000312C412C512CC501B401A20191010F94E4
:10424000611ACA01B901A20191010F94611AF62EF7
:10425000E72E772051F1C501B40120E831E541E0B6
:1042600050E00F94611A8901EF92FF92CE0168E14C
:1042700070E00F94B51A9F938F933F932F938FE520
:1042800096E09F938F93CF92DF920F94E613EDB752
:10429000FEB73A960FB6F894FEBF0FBEEDBF88E0AA
:1042A0000A301105D0F089E018C0C436D10538F5C0
:1042B0007F936F930F931F9383E596E09F938F9364
:1042C000CF92DF920F94E6138DB79EB708960FB684
:1042D000F8949EBF0FBE8DBF85E0DF91CF911F91F7
:1042E0000F91FF90EF90DF90CF90BF90AF909F9095
:1042F0008F907F905F904F903F902F9008957F9385
:104300006F930F931F9389E496E09F938F93CF92BF
:10431000DF920F94E613EDB7FEB738960FB6F89418
:10432000FEBF0FBEEDBF86E0D8CF4F925F926F9277
:104330007F928F929F92AF92BF92CF92DF92EF9235
:10434000FF920F931F93CF93DF93EC012091AB0368
:104350003091AC034091AD035091AE0368817981F7
:104360008A819B810F94181B6B017C012091AF0304
:104370003091B0034091B1035091B2036C817D81C3
:104380008E819F810F94181B4B015C01A701960140
:1043900060910302709104028091050290910602DF
:1043A0000F944D14882309F459C0C0920302D0928F
:1043B0000402E0920502F0920602209199033091E6
:1043C0009A0340919B0350919C03C701B6010F943F
:1043D000B2142B013C010F948E1C6B017C0120E078
:1043E00030E0A9010F944D1487FD79C020E030E042
:1043F00040E050E4C701B6010F94401D18162CF49C
:10440000C12CD12CE12CC0E4FC2EA7019601C301E4
:10441000B2010F94181B2B013C0120E030E0A901F0
:104420000F944D1487FD5FC0409291035092920308
:104430006092930370929403C701B6010F945D1CC0
:1044400060938F03062E000C770B6F5F7F4F6230F7
:10445000710514F062E070E060938D031091010229
:10446000D0918F03A5019401609107027091080219
:104470008091090290910A020F944D1481113CC061
:104480001D1393C0209175033091760340917703FB
:1044900050917803609191037091920380919303FE
:1044A000909194030F94B2142091790330917A0380
:1044B00040917B0350917C030F94191BDF91CF91A6
:1044C0001F910F91FF90EF90DF90CF90BF90AF9032
:1044D0009F908F907F906F905F904F900895C12C28
:1044E000D12C760192CF10929103109292031092E8
:1044F000930310929403A0CF809207029092080237
:10450000A0920902B0920A0220919D0330919E036D
:1045100040919F035091A003C501B4010F94B214C0
:104520004B015C010F948E1C6B017C0120E030E09C
:10453000A9010F944D1487FD05C120E030E040E053
:1045400050E4C701B6010F94401D18162CF4C12C7D
:10455000D12CE12CB0E4FB2EA7019601C501B401DA
:104560000F94181B4B015C0120E030E0A9010F946F
:104570004D1487FDEBC08092950390929603A09214
:104580009703B0929803C701B6010F945D1C609326
:104590009003062E000C770B6F5F7F4F6230710522
:1045A00014F062E070E060938E03C09190031D13DD
:1045B00005C0809102028C1709F479C080918F03A5
:1045C0009091900390930202809301028D2FDD0F52
:1045D000990B0C2E000CDD0BAC01440F551F840F02
:1045E000951FFC01EC0FFD1FEE0FFF1FEE0FFF1FCD
:1045F000EB57FB4F20813181428153812093890306
:1046000030938A0340938B0350938C03E0918E0385
:104610000E2FEE0F110BDC01A00FB11FAA0FBB1F55
:10462000AA0FBB1FAB57BB4F6D917D918D919C9194
:104630000F94181B60938503709386038093870300
:104640009093880380918D03282F880F330BC90125
:10465000880F991F820F931FC80FD91FCC0FDD1F22
:10466000CC0FDD1FCB57DB4F288139814A815B811D
:1046700020938103309382034093830350938403F8
:10468000FC01E00FF11FEE0FFF1FEE0FFF1FEB57B6
:10469000FB4F60817181828193810F94181B60931D
:1046A0007D0370937E0380937F03909380038090BB
:1046B000950390909603A0909703B0909803209153
:1046C0008503309186034091870350918803C5018B
:1046D000B4010F94B2142091890330918A03409160
:1046E0008B0350918C030F94191B6B017C01C092BA
:1046F0007903D0927A03E0927B03F0927C032091BD
:104700007D0330917E0340917F0350918003C5016A
:10471000B4010F94B214209181033091820340912F
:104720008303509184030F94191BA70196010F94E2
:10473000181B6093750370937603809377039093AF
:104740007803A0CEC12CD12C760106CF1092950310
:1047500010929603109297031092980314CF1F9310
:10476000CF93DF93CDB7DEB72C970FB6F894DEBFAB
:104770000FBECDBF182F882379F020E030E0A901CB
:1047800060917D0470917E0480917F0490918004FB
:104790000F944D148823F1F080917C048117D1F09F
:1047A0000E94D2BA8CE0E1E8F2E0DE0111960190BD
:1047B0000D928A95E1F7CE010196B7DD80917C04D8
:1047C000882391F087E692E00E94F4BA10927C046C
:1047D0000E9439CC2C960FB6F894DEBF0FBECDBF29
:1047E000DF91CF911F91089581E080937C0487E64B
:1047F00092E00E94FFB9ECCF80E0B1DF1092AF03EE
:104800001092B0031092B1031092B2031092AB0356
:104810001092AC031092AD031092AE03109281047B
:1048200010928204109283041092840410927D04EA
:1048300010927E0410927F0410928004E5E8F4E068
:1048400029EA34E080E090E0A0ECBFE78083918328
:10485000A283B38384839583A683B783808791875C
:10486000A287B3873C962E173F0781F708954F9292
:104870005F926F927F928F929F92AF92BF92CF92F0
:10488000DF92EF92FF921F93CF93DF93EC01162FED
:10489000209178043091790440917A0450917B04FE
:1048A000688179818A819B810F944D14882309F452
:1048B000ACC0B0907C0480E052DFC880D980EA8030
:1048C000FB8020E030E0A901C701B6010F94401D34
:1048D00018161CF0C12CD12C7601C0927804D0920D
:1048E0007904E0927A04F0927B042DEB37E346E8FA
:1048F00055EBC701B6010F94401D87FD0BC02DEB92
:1049000037E346E855E3C701B6010F944D14181676
:104910000CF077C0A701960160E070E080E89FE3AB
:104920000F94F51B6093A1037093A2038093A303DC
:104930009093A40380EF9FEFA9E7B4EC8093A503C5
:104940009093A603A093A703B093A803BB2009F4F8
:104950005CC040906702509068026090690270905D
:104960006A0280906B0290906C02A0906D02B090F1
:104970006E02C0906F02D0907002E0907102F090D1
:10498000720281E0ECDE112309F43FC0209167023E
:10499000309168024091690250916A02C301B201EC
:1049A0000F944D1481111CC020916B0230916C0248
:1049B00040916D0250916E02C501B4010F944D14E7
:1049C00081110EC020916F023091700240917102EE
:1049D00050917202C701B6010F944D148823A9F0BB
:1049E000DF91CF911F91FF90EF90DF90CF90BF901C
:1049F000AF909F908F907F906F905F904F900C94AE
:104A00005ECC60E070E0CB018DCFDF91CF911F9144
:104A1000FF90EF90DF90CF90BF90AF909F908F90DE
:104A20007F906F905F904F9008958F929F92AF927A
:104A3000BF92CF92DF92EF92FF92C0907D04D09010
:104A40007E04E0907F04F090800420E030E0A90133
:104A5000C701B6010F944D148823E1F1A701960117
:104A600060E070E080E89FE30F94F51B6B017C0130
:104A70008090810490908204A0908304B09084047C
:104A800020E030E0A901C501B4010F944D14882342
:104A900029F1A501940160E070E080E89FE30F94A4
:104AA000F51BC0929903D0929A03E0929B03F09277
:104AB0009C0360939D0370939E0380939F03909348
:104AC000A003FF90EF90DF90CF90BF90AF909F90AA
:104AD0008F900895C12CD12C7601CACF60E070E090
:104AE000CB01DFCFCF92DF92EF92FF926B017C017F
:104AF00083E3C816D104E104F10470F082E3C81A1C
:104B0000D108E108F10862E370E080E090E00E94E3
:104B1000D4FB0E9420B4ECCFC701B6010E94D4FBA5
:104B2000FF90EF90DF90CF900C9420B490918E1373
:104B300094FB882780F994FF06C081E09091AF1024
:104B4000911101C080E00895F1DF882339F0809150
:104B50008E1382FB882780F991E08927089581E0F0
:104B600008959091C00095FFFCCF8093C6000895F2
:104B700085E4F7CF8AE5F5CF89E5F3CF88E5F1CF76
:104B8000FC01693071F06B3081F06830A1F48589E7
:104B900096892789A22FAF70BC018A2F90E00D94CF
:104BA000A402808D918D228DF5CF66A177A191A56C
:104BB00080A59170F4CF89E0D4CF0F931F93CF934A
:104BC000DF93C82F142FD22F662301F18F3008F006
:104BD00084C0E82F880FFF0B8827EE50FA4D8F4FC7
:104BE0000D94F81A012625262C2638263E26432623
:104BF00049264E266D266D2655266D265A26632695
:104C0000682689E0AEDFBADF89E0ABDF112309F463
:104C10006EC0CF3008F0D2C0EC2F0C2E000CFF0B72
:104C20008827EA5EF94D8F4F0D94F81A7226962662
:104C30009D26A926AF26B426BA26BF26DE26DE2666
:104C4000C626DE26CB26D426D92687EE91E10F9400
:104C500068000F94A402D8CF8091E9119091EA11D5
:104C60002091EB11A22FAF70BC018A2F90E0F1CF01
:104C700087EE91E10E94ADFE682F07C087EE91E1BB
:104C80000F942700E6CF6091EC1170E090E080E097
:104C9000E0CF87EE91E10E9496FEDBCF8091ED118F
:104CA0009091EE112091EF11DDCF87EE91E10F94FD
:104CB0005602CFCF809114129091151220911612A6
:104CC000A22FAF73D1CF87EE91E10F940000D4CF24
:104CD00087EE91E10E94A0DBBCCF6C2F87EE91E1C3
:104CE0004FDF92CF89E03DDF47DF89E03ADFDD2308
:104CF00009F46EC0CF3008F0D2C0EC2F0C2E000C9F
:104D0000FF0B8827E957F94D8F4F0D94F81AE326CA
:104D100007270E271A27202725272B2730274F273D
:104D20004F2737274F273C2745274A2789EA91E114
:104D30000F9468000F94A402D8CF8091AB1190918A
:104D4000AC112091AD11A22FAF70BC018A2F90E061
:104D5000F1CF89EA91E10E94ADFE682F07C089EA90
:104D600091E10F942700E6CF6091AE1170E090E0E2
:104D700080E0E0CF89EA91E10E9496FEDBCF80914E
:104D8000AF119091B0112091B111DDCF89EA91E17D
:104D90000F945602CFCF8091D6119091D7112091C8
:104DA000D811A22FAF73D1CF89EA91E10F940000FF
:104DB000D4CF89EA91E10E94A0DBBCCF6C2F89EAB5
:104DC00091E1DEDE92CF89E0CCDED4DE89E0C9DE7F
:104DD000002309F46EC0CF3008F0B9C0EC2F0C2EC0
:104DE000000CFF0B8827E850F94D8F4F0D94F81AEF
:104DF00054275F276627722778277D2783278827F0
:104E0000A727A7278F27A72794279D27A2278BE6C9
:104E100091E10F9468000F94A402D8CF80916D1196
:104E200090916E1120916F11A22FAF70BC018A2F4B
:104E300090E0F1CF8BE691E10E94ADFE682F07C0B4
:104E40008BE691E10F942700E6CF6091701170E03E
:104E500090E080E0E0CF8BE691E10E9496FEDBCF10
:104E6000809171119091721120917311DDCF8BE6B9
:104E700091E10F945602CFCF8091981190919911A2
:104E800020919A11A22FAF73D1CF8BE691E10F94AD
:104E90000000D4CF8BE691E10E94A0DBBCCF6C2F49
:104EA0008BE691E16DDE92CF89E05BDE61DE89E029
:104EB00058DE8AE0DF91CF911F910F9152CE8DE2A3
:104EC00091E10F9468000F94A402F1CF80912F110B
:104ED0009091301120913111A22FAF70BC018A2F17
:104EE00090E0F1CF8DE291E10E94ADFE682F07C006
:104EF0008DE291E10F942700E6CF6091321170E0CE
:104F000090E080E0E0CF8DE291E10E9496FEDBCF61
:104F1000809133119091341120913511DDCF8DE2C4
:104F200091E10F945602CFCF80915A1190915B116D
:104F300020915C11A22FAF73D1CF8DE291E10F943C
:104F40000000D4CF8DE291E10E94A0DBBCCF6C2F9A
:104F50008DE291E115DEABCFCF93DF93EC01FE0143
:104F600084912196882311F0FCDDF9CFDF91CF9158
:104F70000895E091D60C81E6E89FF0011124E85CE9
:104F8000F24F8081811105C08BE492E3E5DF8AE076
:104F9000E8CD0895FF920F931F93CF93DF9388E599
:104FA0000E94701FF82E89E50E94701F082F8AE565
:104FB0000E94701F182F85E40E94701FD82F811146
:104FC00005C0F11003C0C1E0C1270111C0E06FEFBF
:104FD00088E5A1D8C11106C0813021F0FF2041F041
:104FE00087FF06C010922112C9DD86E79DE0B4DF7D
:104FF0006FEF89E590D8C11106C0813021F0002300
:1050000041F087FF06C01092E311B6DD8DE89DE008
:10501000A3DF6FEF8AE57FD8C11106C0813021F090
:10502000112341F087FF06C01092A511A3DD84EA89
:105030009DE092DF6FEF85E46ED8C11106C0882332
:1050400021F0DD2369F087FF0BC01092671190DD1E
:105050008BEB9DE0DF91CF911F910F91FF907CCF63
:10506000DF91CF911F910F91FF900895CF92DF9222
:10507000EF92FF926A017B016FDF42E0C701B60148
:10508000FF90EF90DF90CF900C9496B065ED79E0B3
:105090000E945AF26091B40B7091B50B8091B60BDF
:1050A0009091B70B0F945114AB01BC018CEC99E0BB
:1050B000DDDF4091E40B5091E50B6091E60B7091C0
:1050C000E70B89EC99E0D2DF4091E80B5091E90BB6
:1050D0006091EA0B7091EB0B86EC99E0C7DF409191
:1050E000C4065091C5066091C6067091C70683EC50
:1050F00099E0BCDF8AE035CDCF93DF9369E779E0B3
:105100000E945AF2C4EADBE04CA95DA96EA97FA90E
:1051100080E799E0ABDF48AD59AD6AAD7BAD8DE678
:1051200099E0A4DF4CAD5DAD6EAD7FAD86EC99E04E
:105130009DDF8AE0DF91CF9114CDCF93DF9365E5BA
:1051400079E00E945AF2C4EADBE04CA15DA16EA1B5
:105150007FA18CE499E08ADF48A559A56AA57BA5C3
:105160008CEB94E383DF4CA55DA56EA57FA589EB51
:1051700094E37CDF48A959A96AA97BA986EB94E34B
:1051800075DF8AE0DF91CF91ECCCCF93DF9360E3C2
:1051900079E00E945AF2C4EADBE0688179818A8171
:1051A0009B810F945114AB01BC0187E299E05EDF53
:1051B0006C817D818E819F810F945114AB01BC0164
:1051C0008CEB94E353DF688579858A859B850F9402
:1051D0005114AB01BC0189EB94E348DF6C857D85FC
:1051E0008E859F850F945114AB01BC0186EB94E32F
:1051F0003DDF8AE0DF91CF91B4CCFF920F931F93F4
:10520000CF93DF93F62E042F122F882309F18CE41D
:1052100097E0A2DEB3DC8CE397E09EDE87EE91E1BF
:105220000E94EFFED82F882359F080E397E094DEA8
:1052300088E297E0D13031F084E297E0D23011F08B
:105240008DE297E089DE8AE08CDCC1E0D11101C0FB
:10525000C0E0FF2019F18DE797E07EDE8DDC8DE662
:1052600097E07ADE89EA91E10E94EFFED82F882349
:1052700059F081E697E070DE89E597E0D13031F0B2
:1052800085E597E0D23011F08EE597E065DE8AE0A3
:1052900068DC81E0D11101C080E0C80F002319F162
:1052A0008EEA97E059DE66DC8EE997E055DE8BE604
:1052B00091E10E94EFFED82F882359F082E997E010
:1052C0004BDE8AE897E0D13031F086E897E0D230C3
:1052D00011F08FE897E040DE8AE043DC81E0D111F5
:1052E00001C080E0C80F112319F18FED97E034DE83
:1052F0003FDC8FEC97E030DE8DE291E10E94EFFE23
:10530000D82F882359F083EC97E026DE8BEB97E0CB
:10531000D13031F087EB97E0D23011F080EC97E09C
:105320001BDE8AE01EDC81E0D11101C080E0C80FE5
:10533000CC2351F060E088EE97E0DF91CF911F9190
:105340000F91FF900C94E76ADF91CF911F910F911D
:10535000FF900895811103C085E296E0FDCD8BE2B8
:1053600096E0FCCF811105C08EE196E0F5DD8AE084
:10537000F8CB82E296E0FACF4F925F926F927F92E3
:105380008F929F92AF92BF92CF92DF92EF92FF9255
:10539000CF93DF93CDB7DEB72C970FB6F894DEBF6F
:1053A0000FBECDBF83E50E94701F8823C9F00E9405
:1053B000341F809335022C960FB6F894DEBF0FBED3
:1053C000CDBFDF91CF91FF90EF90DF90CF90BF9056
:1053D000AF909F908F907F906F905F904F900895C7
:1053E00063E67AE081E00E945AF280913502805DA6
:1053F00089838AE59AE0B0DD8981B3DB86E59AE0AE
:10540000ABDD80913502AEDF4090B5065090B60618
:105410006090B7067090B80620913702309138023C
:105420004091390250913A02C301B2010F94191B05
:1054300069837A838B839C838090B9069090BA06A7
:10544000A090BB06B090BC0620913B0230913C027C
:1054500040913D0250913E02C501B4010F94191BC9
:105460006D837E838F839887C090BD06D090BE06E3
:10547000E090BF06F090C00620913F0230914002BC
:105480004091410250914202C701B6010F94191B8D
:1054900069877A878B879C872091430230914402E9
:1054A0004091450250914602C301B2010F94191B6D
:1054B0002B013C0120914702309148024091490262
:1054C00050914A02C501B4010F94191B4B015C01B4
:1054D00020914B0230914C0240914D0250914E026E
:1054E000C701B6010F94191B6B017C018EE49AE091
:1054F00033DD49815A816B817C818CE295E2B6DD96
:105500004D815E816F8178858CEB94E3AFDD4985B9
:105510005A856B857C8589EB94E3A8DD8CE49AE061
:105520001BDD84E49AE018DDB301A2018CE295E270
:105530009DDDB501A4018CEB94E398DDB701A601D4
:1055400089EB94E393DD8AE02C960FB6F894DEBFE6
:105550000FBECDBFDF91CF91FF90EF90DF90CF9046
:10556000BF90AF909F908F907F906F905F904F9083
:10557000F8CA87E196E0F0CC81E196E0EDCCCF93DC
:105580006FEF7FEF84E50E94F193C82F882371F0BD
:10559000F3DF8DE4E6DA8091DC039091DD030E9475
:1055A000459ECF3F31F48CEF9DE0D6DC8C2FCF9120
:1055B000089588EE9DE0D0DC8C2F0E94481D8AE083
:1055C000D0DACFEFF3CFEF92FF920F931F93CF93E9
:1055D000DF9383E50E94701F882309F449C0CFDF61
:1055E000082F0E94341FC82F60E089E40E948B209E
:1055F000182F8DE8E82E82E0F82ED0E0F701819197
:105600007F010E94701F882379F0D230F9F0D330E7
:1056100029F1D13099F0111107C0C09322126C2FDB
:1056200087EE91E10F944C00DF5FD43039F7DF91C2
:10563000CF911F910F91FF90EF9008951111F4CF2A
:10564000C093E4116C2F89EA91E1ECCF1111ECCFFA
:10565000C093A6116C2F8BE691E1E4CF07FDE7CF55
:105660000111E2CFC09368116C2F8DE291E1DACF86
:1056700085DA8AEA9CE070DC87EE91E10F94700095
:10568000811138C082E99CE067DC8AE06ADA74DA6A
:1056900081ED9CE061DC89EA91E10F947000811159
:1056A0002CC089EB9CE058DC8AE05BDA63DA88EF97
:1056B0009CE052DC8BE691E10F947000811120C0D8
:1056C00080EE9CE049DC8AE04CDA52DA8FE19DE022
:1056D00043DC8DE291E10F947000811114C087E0EA
:1056E0009DE03ADC8AE0DF91CF911F910F91FF900E
:1056F000EF9037CA8EE99CE0C7CF85EC9CE0D3CF12
:105700008CEE9CE0DFCF83E19DE0EBCFCF9384E58F
:105710000E94BE1FC0E08823B9F00E94231FC82F3B
:10572000181694F429DF8DE41CDA8091DC03909143
:10573000DD030E94459E85ED9DE00EDC8C2F0E94CE
:10574000481D8AE00EDACFEF8C2FCF9108950F938A
:105750001F93CF93811111C0C42F8B010DDF82EDF8
:105760009DE0FADBC801F8DBCC2339F08AE3F9D9F4
:105770008AE0CF911F910F91F4C9CF911F910F91A2
:105780000895811101C0F8CE0895CF93DF93C82FFB
:1057900041E069E37AE0DBDF8C2FF3DFC7EBD4E095
:1057A0004B855C856D857E8580E39AE05FDC2CEA25
:1057B00035EC47E25EE36F85788989899A890F9491
:1057C000F51BAB01BC018DE29AE050DC2CEA35EC14
:1057D00047E25EE36B897C898D899E890F94B214C0
:1057E000AB01BC018AE29AE041DC8AE0DF91CF9113
:1057F000B8C9CF93DF93EB01AFDBCE01DF91CF913F
:105800000C94459ECF92DF92FF920F931F93CF93FC
:10581000DF9360E089E40E948B20F82E8DE8C82E8B
:1058200082E0D82ED0E0C1E070E060E0F601819126
:105830006F010E94F1938C010097A9F0D23009F416
:1058400051C0D33009F458C0D13009F441C0F1102F
:1058500009C090931E1280931D12BC0187EE91E146
:105860000E945DFFC0E0DF5FD430F1F6CC2309F485
:1058700050C084D960911D1270911E128EE29DE07D
:10588000B8DF8AE06ED978D96091DF117091E011AC
:1058900080E49DE0AEDF8AE064D96CD96091A1110B
:1058A0007091A21182E59DE0A4DF8AE05AD960D907
:1058B000609163117091641184E69DE09ADF8AE043
:1058C000DF91CF911F910F91FF90DF90CF9049C949
:1058D000F110C8CF9093E0118093DF11BC0189EAE9
:1058E00091E1BECFF110BECF9093A2118093A11190
:1058F000BC018BE691E1B4CF42DE87FD0AC0811185
:10590000B1CF1093641100936311B8018DE291E15E
:10591000A7CFDF91CF911F910F91FF90DF90CF9094
:105920000895CF93DF93EB0117DBBE01DD0F880BEA
:10593000990BDF91CF910C94B1EC81110EC040E036
:1059400065E179E004DF80917704811103C088E08C
:1059500099E002DB8AE005D90FDE6091770470E000
:105960008FEF98E0DEDF40917304509174046091F2
:105970007504709176048CEF98E078DB8AE0F1C8CA
:10598000EC018B01F42E0E94DDB1209709F467C071
:10599000F3DDCE01E1DA8AE0E4D80115110511F456
:1059A0000AEB13E30E945F6F1F930F93DF93CF9374
:1059B0008BEC95E09F938F9381E08F930E94CE6A4A
:1059C0000E94936C60E080E00E94667087E79EE032
:1059D0000E945C704AEB55E062E080E00E94A69372
:1059E0004CEA55E063E080E00E94A693C2DD81EFBF
:1059F00095E0B2DA82ED95E00E94C8EF8DB79EB7D0
:105A000007960FB6F8949EBF0FBE8DBF89EE93E048
:105A1000019739F000C00000EEE5F9E03197F0F7AA
:105A2000F7CFF89489EE93E0019739F000C00000B9
:105A3000E6EEF3E03197F0F7F7CF0E94DDB1FF20FB
:105A400031F00E9430B8909905C0A895FCCF0E9413
:105A5000F1B7F9CF909B02C0A895FCCFFFCF0115FD
:105A6000110511F40AEB13E3CBEDD5E09BCF809148
:105A7000EC0B9091ED0B2FEF3FEF981751F0E92FC2
:105A8000F0E0E451F44F228130E09F5F9F779093E4
:105A9000ED0BC90108951F920F920FB60F921124BA
:105AA0000F900FBE0F901F9018951F920F920FB678
:105AB0000F9211240BB60F922F938F939F93EF9316
:105AC000FF939091C6002091ED0BE091EC0B81E0EB
:105AD0008E0F8F77281729F0F0E0E451F44F92836E
